:100000000C9434000C9446000C9446000C9446006A
:100010000C9446000C9446000C9446000C94460048
:100020000C9446000C9446000C9446000C94460038
:100030000C9446000C9446000C9446000C94460028
:100040000C9446000C9446000C9446000C94460018
:100050000C9446000C9446000C9446000C94460008
:100060000C9446000C94460011241FBECFEFD8E03C
:10007000DEBFCDBF22E0A0E0B1E001C01D92AA3BEF
:10008000B207E1F70E9406030C94AE050C94000041
:100090004F925F926F927F928F929F92AF92BF9298
:1000A000CF92DF92EF92FF920F931F93CF93DF9344
:1000B0002B013C0169017A0120E030E040E85FEB70
:1000C0000E943C05181654F420E030E040E85FE35D
:1000D000C301B2010E94E40388232CF120E030E048
:1000E00040E85FE3C301B2010E943C0518169CF092
:1000F00020E030E040E85FEBC301B2010E94E4037E
:1001000088238CF40F2E412C512CF0E86F2EFFEB3E
:100110007F2EF02D08C00F2E412C512CF0E86F2EB1
:10012000FFE37F2EF02D20E030E040E85FEBC701D9
:10013000B6010E943C05181654F420E030E040E877
:100140005FE3C701B6010E94E40388232CF120E09D
:1001500030E040E85FE3C701B6010E943C05181695
:100160009CF020E030E040E85FEBC701B6010E9460
:10017000E40388238CF40F2EC12CD12CF0E8EF2E51
:10018000FFEBFF2EF02D08C00F2EC12CD12CF0E874
:10019000EF2EFFE3FF2EF02D8090000190900101E3
:1001A000C401880F991F880F991FFC01EA51FE4F67
:1001B0004082518262827382FC01EA5FFE4FC082FC
:1001C000D182E282F382C6EED1E006E011E00F2E8A
:1001D000FEEAAF2EF2E0BF2EF02DC12CD12C76011D
:1001E000260137012991399149915991C301B201F1
:1001F0000E9478032B013C01F8012191319141913A
:1002000051918F01C701B6010E9478036B017C01F7
:10021000CA15DB0539F720E030E048E452E4C301B9
:10022000B2010E94E9036093B6027093B702809313
:10023000B8029093B90220E030E048E452E4C701EC
:10024000B6010E94E9036093AE027093AF028093FF
:10025000B0029093B102FFEF8F1A9F0A82E38816D3
:1002600091042CF4909201018092000104C010923C
:10027000010110920001DF91CF911F910F91FF902A
:10028000EF90DF90CF90BF90AF909F908F907F9036
:100290006F905F904F9008959093C5008093C40035
:1002A00086E08093C20088E08093C1000895E0E872
:1002B000F0E08081806A8083E1E8F0E08081826103
:1002C000808380EB97E2909387008093860088EF8D
:1002D00093E090938900809388008CEF91E0909355
:1002E0008B0080938A00089594EA9093BC00ECEB15
:1002F000F0E090819923ECF79091B900987F9031CC
:1003000099F48093BB0084E88093BC00ECEBF0E0B0
:1003100080818823ECF78091B900887F803431F0A8
:10032000803231F083E0089580E0089581E00895FF
:1003300082E0089584E98093BC00ECEBF0E08081DA
:1003400084FDFDCF0895BF92CF92DF92EF92FF928E
:100350000F931F93CF93DF93B82ECCEBD0E00F2EEB
:10036000F4EADF2EF02D09EB10E00F2EFBEBEF2E61
:10037000F12CF02D0F2EF4E8CF2EF02DD8828881AD
:100380008823ECF7F8018081887F8830B9F7F7017E
:10039000B082C88288818823ECF7F8018081887F49
:1003A000883119F00E949A01E9CFDF91CF911F9116
:1003B0000F91FF90EF90DF90CF90BF9008958093C2
:1003C000BB0084E88093BC00ECEBF0E080818823E4
:1003D000ECF78091B900887F883221F0803321F0DA
:1003E00082E0089580E0089581E0089584EC809390
:1003F000BC00ECEBF0E080818823ECF78091BB003F
:10040000089584E88093BC00ECEBF0E080818823C1
:10041000ECF78091BB0008952FE789EA93E0215023
:1004200080409040E1F700C0000080ED0E94A301F1
:1004300089E10E94DF0187E00E94DF010E949A01AA
:1004400080ED0E94A3018BE60E94DF0181E00E9403
:10045000DF010E949A0180ED0E94A3018AE10E94BF
:10046000DF0180E00E94DF010E949A0180ED0E947E
:10047000A3018BE10E94DF0188E10E94DF010E945D
:100480009A0180ED0E94A30188E30E94DF0181E0D0
:100490000E94DF010E949A01089580ED0E94A3014D
:1004A0008BE30E94DF0181ED0E9474010895CF93D8
:1004B0000E944D020E94F601C82F0E94F6016C2F87
:1004C00070E0762F6627682B072E000C880B990B9F
:1004D0000E948C046093E2017093E3018093E40135
:1004E0009093E5010E94F601C82F0E94F6016C2F3F
:1004F00070E0762F6627682B072E000C880B990B6F
:100500000E948C046093DA017093DB018093DC011C
:100510009093DD010E94F601C82F0E94F6016C2F16
:1005200070E0762F6627682B072E000C880B990B3E
:100530000E948C0460930201709303018093040174
:10054000909305010E94F601C82F0E94F6016C2FBE
:1005500070E0762F6627682B072E000C880B990B0E
:100560000E948C046093D2017093D3018093D401D4
:100570009093D5010E94F601C82F0E94F6016C2FBE
:1005800070E0762F6627682B072E000C880B990BDE
:100590000E948C046093CE017093CF018093D001B0
:1005A0009093D1010E94F601C82F0E94F6016C2F92
:1005B00070E0762F6627682B072E000C880B990BAE
:1005C0000E948C046093B2027093B3028093B402D1
:1005D0009093B5020E94F601C82F0E9401026C2F71
:1005E00070E0762F6627682B072E000C880B990B7E
:1005F0000E948C046093DE017093DF018093E00120
:100600009093E1010E949A01CF91089584B1866090
:1006100084B982E08093B80084E390E00E944C01AA
:100620000E9457010E940C02789408E810E0CAE882
:10063000D0E00E94570220E030E040E858E36091AB
:10064000DA017091DB018091DC019091DD010E9463
:1006500041059B01AC010E9478036B017C0120E005
:1006600030E040E858E36091E2017091E30180914D
:10067000E4019091E5010E9441059B01AC010E94BB
:100680007803A70196010E94480020E030E04EE781
:1006900053E46091B6027091B7028091B8029091D4
:1006A000B9020E94410520E030E84EE354E40E9484
:1006B00078030E945B04F8017183608320E030E0DE
:1006C0004EE753E46091AE027091AF028091B002A8
:1006D0009091B1020E94410520E030E040E454E4F2
:1006E0000E9478030E945B0479836883A2CF5058EC
:1006F000BB27AA270E948F030C9402050E94F404D2
:1007000038F00E94FB0420F039F49F3F19F426F4DE
:100710000C94F1040EF4E095E7FB0C94EB04E92F44
:100720000E94130558F3BA176207730784079507E9
:1007300020F079F4A6F50C9435050EF4E0950B2E17
:10074000BA2FA02D0B01B90190010C01CA01A00123
:100750001124FF27591B99F0593F50F4503E68F17E
:100760001A16F040A22F232F342F4427585FF3CFBF
:10077000469537952795A795F0405395C9F77EF490
:100780001F16BA0B620B730B840BBAF09150A1F0D9
:10079000FF0FBB1F661F771F881FC2F70EC0BA0F5F
:1007A000621F731F841F48F4879577956795B795E7
:1007B000F7959E3F08F0B0CF9395880F08F09927E2
:1007C000EE0F9795879508950E94C70408F481E07D
:1007D00008950E94FD030C9402050E94FB0458F04A
:1007E0000E94F40440F029F45F3F29F00C94EB04DC
:1007F00051110C9436050C94F1040E94130568F312
:100800009923B1F3552391F3951B550BBB27AA27C9
:1008100062177307840738F09F5F5F4F220F331F03
:10082000441FAA1FA9F335D00E2E3AF0E0E832D0CB
:1008300091505040E695001CCAF72BD0FE2F29D0CE
:10084000660F771F881FBB1F261737074807AB07A0
:10085000B0E809F0BB0B802DBF01FF2793585F4F15
:100860003AF09E3F510578F00C94EB040C94360559
:100870005F3FE4F3983ED4F3869577956795B795F7
:10088000F7959F5FC9F7880F911D9695879597F902
:100890000895E1E0660F771F881FBB1F621773077B
:1008A0008407BA0720F0621B730B840BBA0BEE1F90
:1008B00088F7E09508950E941B0588F09F5798F0EF
:1008C000B92F9927B751B0F0E1F0660F771F881F55
:1008D000991F1AF0BA95C9F714C0B13091F00E946F
:1008E0003505B1E008950C943505672F782F8827DA
:1008F000B85F39F0B93FCCF3869577956795B39596
:10090000D9F73EF490958095709561957F4F8F4F04
:100910009F4F0895E89409C097FB3EF49095809509
:10092000709561957F4F8F4F9F4F9923A9F0F92FB5
:1009300096E9BB279395F695879577956795B79533
:10094000F111F8CFFAF4BB0F11F460FF1BC06F5F19
:100950007F4F8F4F9F4F16C0882311F096E911C02B
:10096000772321F09EE8872F762F05C0662371F04C
:1009700096E8862F70E060E02AF09A95660F771F60
:10098000881FDAF7880F9695879597F90895990F3C
:100990000008550FAA0BE0E8FEEF16161706E80749
:1009A000F907C0F012161306E407F50798F0621B6A
:1009B000730B840B950B39F40A2661F0232B242B3F
:1009C000252B21F408950A2609F4A140A6958FEF5E
:1009D000811D811D089597F99F6780E870E060E0B0
:1009E00008959FEF80EC089500240A9416161706C8
:1009F00018060906089500240A9412161306140610
:100A000005060895092E0394000C11F4882352F072
:100A1000BB0F40F4BF2B11F460FF04C06F5F7F4F2A
:100A20008F4F9F4F089557FD9058440F551F59F011
:100A30005F3F71F04795880F97FB991F61F09F3FCB
:100A400079F087950895121613061406551FF2CFF4
:100A50004695F1DF08C0161617061806991FF1CF44
:100A600086957105610508940895E894BB2766276B
:100A70007727CB0197F908950E94C70408F48FEFF8
:100A800008950E9454050C9402050E94F40438F065
:100A90000E94FB0420F0952311F00C94EB040C94BD
:100AA000F10411240C9436050E94130570F3959FF0
:100AB000C1F3950F50E0551F629FF001729FBB2755
:100AC000F00DB11D639FAA27F00DB11DAA1F649FF1
:100AD0006627B00DA11D661F829F2227B00DA11DA4
:100AE000621F739FB00DA11D621F839FA00D611D2A
:100AF000221F749F3327A00D611D231F849F600D4B
:100B0000211D822F762F6A2F11249F5750409AF073
:100B1000F1F088234AF0EE0FFF1FBB1F661F771FFF
:100B2000881F91505040A9F79E3F510580F00C94CA
:100B3000EB040C9436055F3FE4F3983ED4F38695BE
:100B400077956795B795F795E7959F5FC1F7FE2B6A
:100B5000880F911D9695879597F90895F894FFCF82
:00000001FF
