:100000000C9434000C9446000C9446000C9446006A
:100010000C9446000C9446000C9446000C94460048
:100020000C9446000C9446000C9446000C94460038
:100030000C9446000C9446000C9446000C94460028
:100040000C9446000C9446000C9446000C94460018
:100050000C9446000C9446000C9446000C94460008
:100060000C9446000C94460011241FBECFEFD8E03C
:10007000DEBFCDBF21E0A0E0B1E001C01D92AA32F9
:10008000B207E1F70E9449030C94D8050C940000D4
:10009000AF92BF92EF92FF920F931F93CF93DF9394
:1000A000CDB7DEB7C857D1090FB6F894DEBF0FBE83
:1000B000CDBFA0900001B0900101D501AA0FBB1FD8
:1000C000AA0FBB1FE1E0F0E0EC0FFD1FEA0FFB1FE2
:1000D000608371838283938320A731A742A753A7AC
:1000E000E1E5F0E0EC0FFD1FEA0FFB1FE082F1827B
:1000F000028313832D813E814F81588569817A81E6
:100100008B819C810E94D00329853A854B855C8533
:100110000E94D0032D853E854F8558890E94D003CB
:1001200029893A894B895C890E94D0032D893E89AF
:100130004F89588D0E94D003298D3A8D4B8D5C8D4F
:100140000E94D0032D8D3E8D4F8D58A10E94D0036B
:1001500029A13AA14BA15CA10E94D0032DA13EA1EF
:100160004FA158A50E94D00320E030E040E251E4C6
:100170000E943C046093260170932701809328011C
:10018000909329012DA53EA54FA558A969A57AA54B
:100190008BA59CA50E94D00329A93AA94BA95CA9CB
:1001A0000E94D0032DA93EA94FA958AD0E94D003AB
:1001B00029AD3AAD4BAD5CAD0E94D00321962CAD7C
:1001C0003DAD4EAD5FAD21970E94D00325962CAD7D
:1001D0003DAD4EAD5FAD25970E94D00329962CAD65
:1001E0003DAD4EAD5FAD29970E94D0032D962CAD4D
:1001F0003DAD4EAD5FAD2D970E94D00361962CAD05
:100200003DAD4EAD5FAD61970E94D00320E030E080
:1002100040E251E40E943C0460931E0170931F0170
:10022000809320019093210169962CAD3DAD4EAD98
:100230005FAD699765966CAD7DAD8EAD9FAD6597F1
:100240000E94D0036D962CAD3DAD4EAD5FAD6D9768
:100250000E94D003A1962CAD3DAD4EAD5FADA197F0
:100260000E94D003A5962CAD3DAD4EAD5FADA597D8
:100270000E94D003A9962CAD3DAD4EAD5FADA997C0
:100280000E94D003AD962CAD3DAD4EAD5FADAD97A8
:100290000E94D003E1962CAD3DAD4EAD5FADE19730
:1002A0000E94D003E5962CAD3DAD4EAD5FADE59718
:1002B0000E94D003E9962CAD3DAD4EAD5FADE99700
:1002C0000E94D00320E030E040E251E40E943C0470
:1002D00060930E0170930F018093100190931101B0
:1002E00085010F5F1F4F0A3011052CF41093010197
:1002F0000093000104C01092010110920001C8583F
:10030000DF4F0FB6F894DEBF0FBECDBFDF91CF91A8
:100310001F910F91FF90EF90BF90AF900895909331
:10032000C5008093C40086E08093C20088E080937B
:10033000C1000895E0E8F0E08081806A8083E1E810
:10034000F0E080818261808380EB97E29093870068
:100350008093860088EF93E09093890080938800D3
:100360008CEF91E090938B0080938A00089594EA3B
:100370009093BC00ECEBF0E090819923ECF7909126
:10038000B900987F903199F48093BB0084E8809302
:10039000BC00ECEBF0E080818823ECF78091B900A1
:1003A000887F803431F0803231F083E0089580E03E
:1003B000089581E0089582E0089584E98093BC0067
:1003C000ECEBF0E0808184FDFDCF0895BF92CF92E9
:1003D000DF92EF92FF920F931F93CF93DF93B82E8C
:1003E000CCEBD0E00F2EF4EADF2EF02D09EB10E07D
:1003F0000F2EFBEBEF2EF12CF02D0F2EF4E8CF2E6D
:10040000F02DD88288818823ECF7F8018081887FDD
:100410008830B9F7F701B082C88288818823ECF769
:10042000F8018081887F883119F00E94DD01E9CFD1
:10043000DF91CF911F910F91FF90EF90DF90CF90C0
:10044000BF9008958093BB0084E88093BC00ECEBE0
:10045000F0E080818823ECF78091B900887F8832B2
:1004600021F0803321F082E0089580E0089581E05A
:10047000089584EC8093BC00ECEBF0E0808188234D
:10048000ECF78091BB00089584E88093BC00ECEB0E
:10049000F0E080818823ECF78091BB0008952FE77E
:1004A00089EA93E0215080409040E1F700C00000CD
:1004B00080ED0E94E60189E10E94220287E00E940D
:1004C00022020E94DD0180ED0E94E6018BE60E947F
:1004D000220281E00E9422020E94DD0180ED0E9442
:1004E000E6018AE10E94220280E00E9422020E942C
:1004F000DD0180ED0E94E6018BE10E94220288E18D
:100500000E9422020E94DD0180ED0E94E60188E344
:100510000E94220281E00E9422020E94DD010895D1
:1005200080ED0E94E6018BE30E94220281ED0E9491
:10053000B7010895CF930E9490020E943902C82FFC
:100540000E9439026C2F70E0762F6627682B072EE9
:10055000000C880B990B0E94DF0460931A017093C2
:100560001B0180931C0190931D010E943902C82F2A
:100570000E9439026C2F70E0762F6627682B072EB9
:10058000000C880B990B0E94DF046093120170939A
:10059000130180931401909315010E943902C82F12
:1005A0000E9439026C2F70E0762F6627682B072E89
:1005B000000C880B990B0E94DF046093020170937A
:1005C000030180930401909305010E943902C82F12
:1005D0000E9439026C2F70E0762F6627682B072E59
:1005E000000C880B990B0E94DF0460930A01709342
:1005F0000B0180930C0190930D010E943902C82FCA
:100600000E9439026C2F70E0762F6627682B072E28
:10061000000C880B990B0E94DF0460930601709315
:10062000070180930801909309010E943902C82FA5
:100630000E9439026C2F70E0762F6627682B072EF8
:10064000000C880B990B0E94DF04609322017093C9
:10065000230180932401909325010E943902C82F21
:100660000E9444026C2F70E0762F6627682B072EBD
:10067000000C880B990B0E94DF04609316017093A5
:10068000170180931801909319010E94DD01CF9109
:10069000089584B1866084B982E08093B80084E3D1
:1006A00090E00E948F010E949A010E944F0278946C
:1006B0000F2EF8E8CF2ED12CF02DCAE8D0E00E9402
:1006C0009A0220E030E040E858E360910201709126
:1006D000030180910401909105010E946B052B019B
:1006E0003C0120E030E040E858E360911201709155
:1006F000130180911401909115010E946B059B01DB
:10070000AC010E94D0034B015C0120E030E040E8E6
:1007100058E360911A0170911B0180911C01909126
:100720001D010E946B059B01AC010E94D003830157
:100730007201A50194010E94480020E030E04EE7DC
:1007400053E46091260170912701809128019091D6
:1007500029010E946B0520E030E84EE354E40E943A
:10076000D0030E94AE04F6017183608320E030E084
:100770004EE753E460911E0170911F0180912001AA
:10078000909121010E946B0520E030E84EE354E493
:100790000E94D0030E94AE047983688390CF5058A2
:1007A000BB27AA270E94E7030C9431050E9423056A
:1007B00038F00E942A0520F039F49F3F19F426F4FE
:1007C0000C9420050EF4E095E7FB0C941A05E92F34
:1007D0000E94420558F3BA1762077307840795070A
:1007E00020F079F4A6F50C9464050EF4E0950B2E38
:1007F000BA2FA02D0B01B90190010C01CA01A00173
:100800001124FF27591B99F0593F50F4503E68F1CD
:100810001A16F040A22F232F342F4427585FF3CF0E
:10082000469537952795A795F0405395C9F77EF4DF
:100830001F16BA0B620B730B840BBAF09150A1F028
:10084000FF0FBB1F661F771F881FC2F70EC0BA0FAE
:10085000621F731F841F48F4879577956795B79536
:10086000F7959E3F08F0B0CF9395880F08F0992731
:10087000EE0F9795879508950E9450040C943105CA
:100880000E942A0558F00E94230540F029F45F3F9A
:1008900029F00C941A0551110C9465050C9420054F
:1008A0000E94420568F39923B1F3552391F3951BF8
:1008B000550BBB27AA2762177307840738F09F5F81
:1008C0005F4F220F331F441FAA1FA9F335D00E2EEE
:1008D0003AF0E0E832D091505040E695001CCAF75B
:1008E0002BD0FE2F29D0660F771F881FBB1F26171E
:1008F00037074807AB07B0E809F0BB0B802DBF01F5
:10090000FF2793585F4F3AF09E3F510578F00C94C3
:100910001A050C9465055F3FE4F3983ED4F3869581
:1009200077956795B795F7959F5FC9F7880F911DE4
:100930009695879597F90895E1E0660F771F881FD0
:10094000BB1F621773078407BA0720F0621B730B83
:10095000840BBA0BEE1F88F7E09508950E944A05B4
:1009600088F09F5798F0B92F9927B751B0F0E1F070
:10097000660F771F881F991F1AF0BA95C9F714C020
:10098000B13091F00E946405B1E008950C946405C3
:10099000672F782F8827B85F39F0B93FCCF3869559
:1009A00077956795B395D9F73EF4909580957095B6
:1009B00061957F4F8F4F9F4F0895E89409C097FB33
:1009C0003EF490958095709561957F4F8F4F9F4F26
:1009D0009923A9F0F92F96E9BB279395F69587956A
:1009E00077956795B795F111F8CFFAF4BB0F11F42D
:1009F00060FF1BC06F5F7F4F8F4F9F4F16C08823D4
:100A000011F096E911C0772321F09EE8872F762F09
:100A100005C0662371F096E8862F70E060E02AF04A
:100A20009A95660F771F881FDAF7880F9695879536
:100A300097F9089597F99F6780E870E060E008955E
:100A40009FEF80EC089500240A94161617061806E6
:100A50000906089500240A941216130614060506C2
:100A60000895092E0394000C11F4882352F0BB0F53
:100A700040F4BF2B11F460FF04C06F5F7F4F8F4FB6
:100A80009F4F089557FD9058440F551F59F05F3FF1
:100A900071F04795880F97FB991F61F09F3F79F0A0
:100AA00087950895121613061406551FF2CF469522
:100AB000F1DF08C0161617061806991FF1CF8695A4
:100AC0007105610508940895E894BB276627772788
:100AD000CB0197F908950E947E050C9431050E9480
:100AE000230538F00E942A0520F0952311F00C947C
:100AF0001A050C94200511240C9465050E944205EA
:100B000070F3959FC1F3950F50E0551F629FF00160
:100B1000729FBB27F00DB11D639FAA27F00DB11D79
:100B2000AA1F649F6627B00DA11D661F829F222702
:100B3000B00DA11D621F739FB00DA11D621F839F89
:100B4000A00D611D221F749F3327A00D611D231F5F
:100B5000849F600D211D822F762F6A2F11249F57AD
:100B600050409AF0F1F088234AF0EE0FFF1FBB1FB0
:100B7000661F771F881F91505040A9F79E3F51056F
:100B800080F00C941A050C9465055F3FE4F3983EE1
:100B9000D4F3869577956795B795F795E7959F5F19
:100BA000C1F7FE2B880F911D9695879597F90895AB
:040BB000F894FFCFE7
:00000001FF
