S0110000536572776F5F41726D2E7372656384
S11300000C9434000C9446000C9446000C94460066
S11300100C9446000C9446000C9446000C94460044
S11300200C9446000C9446000C9446000C94460034
S11300300C9446000C9446000C9446000C94460024
S11300400C946C010C9446000C9446000C944600ED
S11300500C9446000C942E010C9446000C9446001B
S11300600C9446000C94460011241FBECFEFD8E038
S1130070DEBFCDBF21E0A0E0B1E001C01D92A930F8
S1130080B207E1F70E94E5000C940D030C94000004
S11300909093C5008093C40086E08093C20088E0FA
S11300A08093C10008959091C00095FFFCCF809388
S11300B0C6000895FF920F931F93CF93DF93EC0133
S11300C080E3C03197E2D90720F0C051D7428F5F57
S11300D0F8CF90E3F92EC83E93E0D90720F0C85E2C
S11300E0D340F394F8CF00E3C436D10520F0C456CE
S11300F0D1090F5FF9CF10E3CA30D10518F02A9760
S11301001F5FFACF803319F10E9453008F2D0E9494
S11301105300802F0E945300812F0E9453008C2F84
S1130120805D0E9453008091C00085FFFCCF8DE06C
S11301308093C6008091C00085FFFCCF8AE0809345
S1130140C600DF91CF911F910F91FF90089580E336
S1130150F812DCCF0033E9F61033F1F6E0CFEAE72A
S1130160F0E08081896A8083EBE7F0E0808184603D
S11301708083ECE7F0E0808184648083089585B512
S1130180856085BDEEE6F0E080818160808308951E
S1130190E0E8F0E08081806A8083E1E8F0E080813B
S11301A08261808380EB97E290938700809386003E
S11301B088EF93E090938900809388008CEF91E01E
S11301C090938B0080938A00089584B1866084B9EB
S11301D084E390E00E9448000E94BF000E94AF00A8
S11301E00E94C800789480910301909104010E94B8
S11301F05A00609101017091020180E090E00E9438
S1130200120226EB33EF4DEF5EEB0E94A00220E0DA
S113021030E04EE754E40E9477010E94E3017093BA
S1130220890060938800609105017091060180E067
S113023090E00E94120226EB33EF4DEF5EE30E9442
S1130240A00220E030E04EEF53E40E9477010E94C8
S1130250E30170938B0060938A00C5CF1F920F92C5
S11302600FB60F9211242F938F939F9380917C004C
S113027080FD10C0809178002091790090E0922B4D
S1130280909306018093050180917C0081608093A6
S11302907C001AC0809178002091790090E0922B24
S11302A0909302018093010180917C008E7F809362
S11302B07C00809100018F5F809300018091000198
S11302C08A3010F0109200019F918F912F910F901E
S11302D00FBE0F901F9018951F920F920FB60F929A
S11302E011240F900FBE0F901F9018955058BB27E4
S11302F0AA270E948E010C9466020E94580238F0CC
S11303000E945F0220F039F49F3F19F426F40C9404
S113031055020EF4E095E7FB0C944F02E92F0E947E
S1130320770258F3BA17620773078407950720F01A
S113033079F4A6F50C9499020EF4E0950B2EBA2FDD
S1130340A02D0B01B90190010C01CA01A0011124D7
S1130350FF27591B99F0593F50F4503E68F11A1683
S1130360F040A22F232F342F4427585FF3CF469514
S113037037952795A795F0405395C9F77EF41F1636
S1130380BA0B620B730B840BBAF09150A1F0FF0F00
S1130390BB1F661F771F881FC2F70EC0BA0F621FEC
S11303A0731F841F48F4879577956795B795F795DC
S11303B09E3F08F0B0CF9395880F08F09927EE0F71
S11303C09795879508950E947F0288F09F5798F02B
S11303D0B92F9927B751B0F0E1F0660F771F881F46
S11303E0991F1AF0BA95C9F714C0B13091F00E9460
S11303F09902B1E008950C949902672F782F882709
S1130400B85F39F0B93FCCF3869577956795B39586
S1130410D9F73EF490958095709561957F4F8F4FF5
S11304209F4F0895E89409C097FB3EF490958095FA
S1130430709561957F4F8F4F9F4F9923A9F0F92FA6
S113044096E9BB279395F695879577956795B79524
S1130450F111F8CFFAF4BB0F11F460FF1BC06F5F0A
S11304607F4F8F4F9F4F16C0882311F096E911C01C
S1130470772321F09EE8872F762F05C0662371F03D
S113048096E8862F70E060E02AF09A95660F771F51
S1130490881FDAF7880F9695879597F9089597F945
S11304A09F6780E870E060E008959FEF80EC089516
S11304B000240A941616170618060906089500243F
S11304C00A9412161306140605060895092E0394B9
S11304D0000C11F4882352F0BB0F40F4BF2B11F42D
S11304E060FF04C06F5F7F4F8F4F9F4F089557FD8C
S11304F09058440F551F59F05F3F71F04795880F8E
S113050097FB991F61F09F3F79F087950895121624
S113051013061406551FF2CF4695F1DF08C01616D0
S113052017061806991FF1CF869571056105089481
S11305300895E894BB2766277727CB0197F9089598
S11305400E94B3020C9466020E94580238F00E9482
S11305505F0220F0952311F00C944F020C94550285
S113056011240C949A020E94770270F3959FC1F3B0
S1130570950F50E0551F629FF001729FBB27F00D4D
S1130580B11D639FAA27F00DB11DAA1F649F6627A2
S1130590B00DA11D661F829F2227B00DA11D621FF1
S11305A0739FB00DA11D621F839FA00D611D221FAB
S11305B0749F3327A00D611D231F849F600D211D8F
S11305C0822F762F6A2F11249F5750409AF0F1F012
S11305D088234AF0EE0FFF1FBB1F661F771F881F7B
S11305E091505040A9F79E3F510580F00C944F0262
S11305F00C949A025F3FE4F3983ED4F38695779582
S11306006795B795F795E7959F5FC1F7FE2B880F20
S1110610911D9695879597F90895F894FFCF5C
S9030000FC
